:020000040800F2
:1000000060200020210200081B170008A515000829
:1000100019170008790400084919000800000000B9
:10002000000000000000000000000000890100083E
:100030004D06000800000000CD0100080D18000862
:100040003B0200083B0200083B0200083B0200089C
:100050003B0200083B0200083B0200083B0200088C
:100060003B0200083B0200083B0200083B0200087C
:100070003B0200083B0200083B0200083B0200086C
:100080003B0200083B0200083B0200083B0200085C
:100090003B0200083B0200083B0200083B0200084C
:1000A0003B0200083B0200083B0200083B0200083C
:1000B0003B0200083B0200083B0200083B0200082C
:1000C0003B0200083B0200083B0200083B0200081C
:1000D0003B0200083B0200083B0200083B0200080C
:1000E0003B0200083B0200083B02000800F002F857
:1000F00000F03AF80AA090E8000C82448344AAF188
:100100000107DA4501D100F02FF8AFF2090EBAE885
:100110000F0013F0010F18BFFB1A43F0010318473B
:10012000602C0000802C0000103A24BF78C878C1F1
:10013000FAD8520724BF30C830C144BF04680C60ED
:10014000704700000023002400250026103A28BF35
:1001500078C1FBD8520728BF30C148BF0B60704739
:100160001FB51FBD10B510BD00F0DAF81146FFF73E
:10017000F7FF01F0FAFB00F0F8F803B4FFF7F2FF25
:1001800003BC00F0FBF80000224B19680868B0E8D7
:10019000F00F80F30988BFF36F8F4FF0000080F3FA
:1001A00011884EF00D0E70470000000006480068F0
:1001B000006880F3088862B661B6BFF34F8FBFF363
:1001C0006F8F00DF00BF00BF08ED00E0EFF3098094
:1001D000BFF36F8F0F4B1A6820E9F00F106008B55E
:1001E0004FF0500080F31188BFF34F8FBFF36F8F34
:1001F00002F0D0F84FF0000080F31188BDE808400D
:1002000019680868B0E8F00F80F30988BFF36F8FB2
:10021000704700BF34000020EFF3058070470000F6
:100220000948804709480047FEE7FEE7FEE7FEE78A
:10023000FEE7FEE7FEE7FEE7FEE7FEE704480549C6
:10024000054A064B704700008D180008ED000008B5
:10025000601A002060200020601C0020601C00202C
:1002600010B5203AC0F00B80B1E81850203AA0E851
:100270001850B1E81850A0E81850BFF4F5AF5FEA85
:10028000027C24BFB1E81850A0E8185044BF18C938
:1002900018C0BDE810405FEA827C24BF51F8043BDF
:1002A00040F8043B08BF7047D20728BF31F8023B33
:1002B00048BF11F8012B28BF20F8023B48BF00F8C7
:1002C000012B70474FF0000200B513469446964646
:1002D000203922BFA0E80C50A0E80C50B1F1200159
:1002E000BFF4F7AF090728BFA0E80C5048BF0CC007
:1002F0005DF804EB890028BF40F8042B08BF704765
:1003000048BF20F8022B11F0804F18BF00F8012BD6
:10031000704770477047704700487047001A0020C8
:100320007546FFF7F9FFAE4605006946534620F0D3
:100330000700854618B020B5FFF780FFBDE82040D4
:100340004FF000064FF000074FF000084FF0000B91
:1003500021F00701AC46ACE8C009ACE8C009ACE844
:10036000C009ACE8C0098D46704710B50446AFF32C
:1003700000802046BDE81040FFF7FFBE014918206D
:10038000ABBEFEE7260002007047000070B50446D1
:1003900000688168C943C90717D1816821F001014C
:1003A000816000F0B7FC05460AE000BF00F0B2FC37
:1003B000401B022804D920688068C043C00706D0CB
:1003C00020688068C043C007F0D0002070BDA06ADC
:1003D00040F01000A062E06A40F00100E0620120FD
:1003E00070BD0000F8B500260446009600688168DC
:1003F000C943C9072DD0816841F0010181601648C9
:1004000016490068B0FBF1F000E0401E00900028A3
:10041000FBD100F07FFC054616E000BF00F07AFC3F
:10042000401B022810D920688068C043C0070BD049
:10043000A06A40F01000A062E06A40F00100E062B3
:1004400084F824600120F8BD20688068C043C0079C
:10045000E4D10020F8BD00003000002040420F0031
:10046000044B19680A4600E0896B0029FCD18263BD
:10047000186070479C000020FEE70023002805D08C
:10048000082904D000EB8100C2600120704700EB16
:1004900083015B1CDBB2CA60082BF8D3F5E70000D0
:1004A00010B50B4A0B490CA000F01EF80C4A0021B5
:1004B0000848FFF7E2FF064A064907A000F014F8D3
:1004C000BDE81040074A04210248FFF7D6BF0000EC
:1004D0001D170008B41900207061757365000000D5
:1004E0004D1E0008651E00082DE9F04116460C005F
:1004F000054623D03C212046FFF7E4FE201D0521C0
:100500005FF0000715F8012B00F8012BD2B1491E4E
:10051000F8D10A206072E0722660A07A20F0030011
:10052000401CA072B047A17A60F38301A172678674
:100530002046FFF795FF0120BDE8F0810020FBE792
:1005400000F8017B491EFBD1E3E770B50446006863
:1005500080470146A07A0025C0F381028A4219D063
:10056000638E5B1C1BB26386042B13DD61F3830077
:10057000A0726586617A0A2901D041B10DE0C0F30D
:10058000810100F00300814207D1657205E001207E
:10059000607202E08A4200D16586607A78B10128F3
:1005A00027D1E07A0A26D0B3062805D0042820D126
:1005B000216A09B120468847E586258635E0A07A7C
:1005C000C0F3810100F00300814212D1E08E4FF4AC
:1005D000C871401C00B2E086884204DAE07A022842
:1005E00016D0E57214E00422884203D1E272E16978
:1005F00061B970BD88420BDD208E401C00B22086A0
:10060000884205DB2586E272E16909B12046884708
:10061000E08EFF28EDD140F29110E08670BDFFE73B
:10062000E16809B120468847E5866672E672F5E71B
:10063000054810B5046803E02046FFF786FFA46B69
:10064000002CF9D110BD00009C000020704772B64C
:10065000FEE70000F8B50024009490F82420254619
:10066000012A12D0012280F824204A681F23072A79
:100670000DD20668776B521E02EB820293409F43B5
:100680000B6893401F43776319E00220F8BD0668AA
:100690000D2A0AD2376BD21F02EB820293409F438E
:1006A0000B6893401F43376309E0F76A0D3A02EB8A
:1006B000820293409F430B6893401F43F7620A688E
:1006C000072306680A2A0AD3F7680A3A02EB4202AD
:1006D00093409F438B6893401F43F76008E037695E
:1006E00002EB420293409F438B6893401F43376164
:1006F0000A68102A01D0112A20D1124B02689A42AE
:1007000017D193681B0219D4936843F400039360D4
:100710000968102912D10C490C4A0968B1FBF2F1A1
:1007200001EB8101490000E0491E00910029FBD145
:1007300004E0816A41F020018162012480F82450A4
:100740002046F8BD002401403000002040420F0048
:100750000068C06C704700002DE9F0414FF00007C1
:1007600004003D467ED0A06A002628B9E66284F8DF
:100770002460204600F07EF82046FFF707FEA16ABD
:10078000C90600D420B1A06A40F01000A06269E060
:10079000A16A21F4885141F00201A1626268E16915
:1007A000237B0A4347EA43010A43A1684FF4807759
:1007B000B94209D0012907D05FF0000194F814C0B4
:1007C000BCF1010F02D00AE03946F7E7F3B1A36AA2
:1007D00043F02003A362E36A43F00103E36223686A
:1007E000D3F804C02CF4694C4CEA010CC3F804C0E3
:1007F00021688B68DFF870C003EA0C0313438B6039
:10080000A168B9420BD0012909D00CE0DFF85CC027
:10081000A3690CEB43330B4343F40061DFE7218A08
:100820000D05A5F580152168CB6A23F470032B43D1
:10083000CB62216889680E4B1940914208D1E6626B
:10084000A16A21F0020141F00101A162BDE8F0813D
:10085000A06A20F0020040F01000A062E06A40F0C0
:100860000100E0620120F1E7FDF7E1FF00E0FFFF9A
:10087000FE0E1FFF00B585B000210091019102918D
:10088000039100680E49884218D10E48816941F4ED
:1008900000718161816901F400710491816941F005
:1008A000080181618069694600F008000490012018
:1008B000009003200190044800F032F905B000BD1B
:1008C0000024014000100240000C01402DE9F843D3
:1008D00000270D460446009700F01CFA8046206869
:1008E0008168C90508D5A06A40F02000A06284F89C
:1008F00024700120BDE8F8834168C90503D4C06AAB
:1009000010F4700F2AD0022000F09AFA3B490968CF
:10091000B1FBF0F62068036939490B424FEA6101E7
:100920004FEAA1121FD1C3684FEA611C13EA0C0FF2
:1009300019D103690B4225D1C068104222D114207D
:1009400023E0681C0AD02DB100F0E4F9A0EB080008
:10095000A84203D920680068800725D52068006870
:100960008007EED52DE003690B4202D1C168114228
:1009700006D0026923490A4206D1C068084203D161
:10098000542002E0292000E0FC204643009816E0B5
:10099000681C11D02DB100F0BDF9A0EB0800A842F1
:1009A0000AD90098B04207D2A06A40F00400A062C1
:1009B00084F8247003209DE70098401C0090B0420A
:1009C000E6D321686FF012000860A06A40F400705E
:1009D000A06220688068C0F3424007280CD1207BC9
:1009E00050B9A06A20F48070A062A06AC00403D449
:1009F000A06A40F00100A06200207BE730000020E8
:100A0000244992244992240070B5044690F82400A9
:100A100001280DD0012084F824002046FFF7E2FCD5
:100A200002004FF0000005D084F82400104670BD8D
:100A3000022070BDA16A40F20123994341F4807104
:100A4000A1621F4D23681F49AB4218D10E6816F4EE
:100A5000702F14D0A66A46F48016A6620E6876053A
:100A600005D5A66A26F4005646F48056A662A66A04
:100A7000F6040AD5E66A26F00606E66206E0A66AED
:100A800026F48016A6625E68E9E7E06284F8240036
:100A90006FF00200186020688368C3F34243072B9D
:100AA00005D1A84208D1096811F4702F04D08168DB
:100AB00041F480118160B9E7816841F4A001F9E750
:100AC000002801400424014010B5044690F8240099
:100AD000012807D0012084F824002046FFF756FCA7
:100AE00010B107E0022010BDA16A21F4885141F045
:100AF0000101A162002184F8241010BD70B50446E4
:100B000000F008F90546601C02D00448007804444F
:100B100000F000F9401BA042FAD370BD2400002071
:100B20002DE9F84FDFF8B8910024A9F1040B234612
:100B30000F2709F1040AABF1040EC9E00125A54015
:100B40002A40AA427DD1674ED1F804C0ACEB06081A
:100B5000B44532D014DCBCF1030F3AD009DCBCF14F
:100B6000000F2AD0BCF1010F1CD0BCF1020F31D113
:100B70001DE0BCF1110F17D0BCF1120F2AD119E002
:100B8000B8F5881F19D006DCB8F5803F15D0B8F548
:100B9000801F1FD111E0B8F5001F0ED0B8F5041F5B
:100BA00018D10AE0CB6815E0CB681B1D12E0CB68BA
:100BB00008330FE0CB680C330CE08B682BB1012BB2
:100BC0004FF0080303D0456104E0042302E005610F
:100BD00000E00023FF2A01D8064601E000F10406E8
:100BE0004FEA840501D9A5F12005D6F8008007FA5F
:100BF00005FC28EA0C0803FA05F548EA0508C6F8DA
:100C000000804D68ED0062D5374DAE6946F00106B3
:100C1000AE61AD6924F0030605F001050095334D82
:100C200006EB050CDCF80850A607360F07FA06F8A5
:100C300025EA0805DFF8B880404503D14FF00008E9
:100C400017E044E0DFF8AC80404502D14FF00108E6
:100C50000FE0DFF8A480404502D14FF0020808E021
:100C6000DFF89880404502D14FF0030801E04FF0D3
:100C7000040808FA06F848EA0508CCF808804D6828
:100C8000D9F80060ED024D4601D5164300E09643C9
:100C90002E604D68DAF80060AD02554601D5164366
:100CA00000E096432E604D68DBF80060AD035D46C2
:100CB00001D5164300E096432E604D68DEF80060D3
:100CC000ED03754601D5164300E096432E60641C83
:100CD0000D682A46E5407FF431AFBDE8F88F00008B
:100CE0000804014000001110001002400000014003
:100CF00000080140000C01400010014000140140B8
:100D00008068084000D0012070470AB10161704737
:100D10000904FBE7014880687047000024000020B8
:100D200002488168027811448160704724000020E5
:100D3000074810B5016841F010010160032000F080
:100D40006DF80F2000F006F800F024F8002010BD28
:100D50000020024070B50D4D04464FF47A7128789A
:100D6000B1FBF0F00A490968B1FBF0F000F09CFB20
:100D700048B9102C07D200222146501E00F02EF850
:100D800000206C6070BD012070BD000024000020B8
:100D9000300000200F4808B5816941F001018161F0
:100DA000816901F001010091C16941F08051C16187
:100DB000C069002200F0805000900F21901E00F0CA
:100DC0000DF80548416821F0E06141F00071416093
:100DD00008BD00000010024000000140F0B40E4BBE
:100DE0001B680C46C3F30223C3F10705042D00D989
:100DF0000425191D072901D2002300E0DB1E01266E
:100E000006FA05F1491E214099409E40761E164083
:100E10003143F0BC00F099BD0CED00E0064900F054
:100E2000070208684FF6FF03184040EA0220034A11
:100E300010430860704700000CED00E00000FA0568
:100E400010B501460020234C012922D0022939D0B7
:100E500010291DD161682268D20119D51E48C1F33D
:100E60008342C903805C0AD561681B4AC1F34041D3
:100E7000921E515C194AB2FBF1F1484301E0184956
:100E800048436168490203D440000321B0FBF1F0FC
:100E900010BD226AC2F30121012903D1920701D5B5
:100EA000C80310BD022905D1626A920702D549F62E
:100EB000404010BD0329FCD121688903F9D54FF2C8
:100EC000244010BD00F02AF96168C1F38131491C4A
:100ED0004900DBE700100240042D000800127A00F0
:100EE00000093D002DE9F84305460078354CC00760
:100EF00054D0E0690026C00008D4E06940F080507A
:100F0000E061E069012600F0805000902E48016801
:100F1000C90512D40168804641F480710160FFF771
:100F2000F9FE074605E000BFFFF7F4FEC01B64288A
:100F300023D8D8F80000C005F6D5206A10F4407018
:100F400021D0A98801F4407181421CD0206A1F4938
:100F5000012220F440700A6000220A602062C0076B
:100F600011D0FFF7D7FE074641F2883808E000BFEE
:100F7000FFF7D0FEC11B414502D90320BDE8F8832D
:100F8000206A8007F4D5206A696820F4407008431D
:100F900020621EB1E06920F08050E061287880076F
:100FA00005D56068A96820F440400843606028784F
:100FB000C00605D56068E96820F4800008436060D9
:100FC0000020DBE700100240007000404004424275
:100FD0002DE9F0470F46050061D0434E306800F020
:100FE0000700B84209D2306820F00700384330606B
:100FF000306800F00700B84251D128683B4C8107A7
:1010000012D5400703D5606840F4E060606028783E
:10101000000703D5606840F4605060606068A968AC
:1010200020F0F000084360602878C00728D0686886
:10103000012810D02168022810D0890700292EDA53
:10104000616821F0030101436160FFF763FE8046A0
:1010500041F288390DE021688903EFE78901EDE766
:10106000FFF758FEA0EB0801494502D90320BDE86F
:10107000F0876068696800F00C00B0EB810FEFD179
:10108000306800F00700B8420BD9306820F0070044
:1010900038433060306800F00700B84201D00120CA
:1010A000E5E72878400705D56068E96820F4E06046
:1010B000084360602878000706D56068296920F435
:1010C000605040EAC100606000F038F86168084A8A
:1010D000C1F30311515CC840064908600648006826
:1010E000FFF738FE0020C2E7002002400010024057
:1010F000142D000830000020280000200448054975
:1011000000684968044AC1F30221515CC840704735
:101110003000002000100240242D0008044805493A
:1011200000684968044AC1F3C221515CC840704755
:101130003000002000100240242D00080E4A5168A3
:101140000E4801F00C03042B11D0082B0FD10C48D2
:10115000C1F38343C903C05C0AD55168084AC1F38F
:101160004041921E515C054A5043B0FBF1F070477C
:1011700004494843704700000010024000127A0002
:10118000F22C000800093D002DE9F84F040070D052
:101190002078C04DC00749D06868C0F3810001289D
:1011A00007D06868C0F38100022809D16868C003CD
:1011B00006D52868800339D560680028E7D035E077
:1011C0006068B0F5803F0BD010B1B0F5A02F11D002
:1011D000286820F480302860286820F4802002E00D
:1011E000286840F480302860606890B1FFF792FD75
:1011F00006460AE0286840F480202860F0E700BF37
:10120000FFF788FD801B642873D828688003F7D512
:101210000CE0FFF77FFD064605E000BFFFF77AFD13
:10122000801B6428F0D828688003F7D420789A4E71
:1012300080074FF001094FF0000839D5686810F0B9
:101240000C0F07D06868C0F38100022809D16868D4
:10125000C00306D42868800714D52069012808D166
:1012600010E02069B0B1C6F80090FFF753FD0746C3
:1012700005E00AE1FFF74EFDC01B0228C4D828682C
:101280008007F7D52868616920F0F80040EAC100BE
:1012900028600DE0C6F80080FFF73CFD074604E03B
:1012A000FFF738FDC01B022823D828688007F7D431
:1012B000207800072CD57948A169D9B1C0F80090F1
:1012C000FFF728FD074604E0FFF724FDC01B0228B6
:1012D0000FD8686A8007F7D571484FF4FA51006853
:1012E000B0FBF1F0009000BF0098411E0091FAD2CF
:1012F0000EE080E0C0F80080FFF70CFD074604E038
:10130000FFF708FDC01B022875D8686A8007F7D46C
:101310002078400760D5E8690027C00008D4E86954
:1013200040F08050E861E869012700F080500090AB
:101330005C480168C90513D40168834641F4807193
:101340000160FFF7E7FC824606E000BFFFF7E2FC22
:10135000A0EB0A0064284ED8DBF80000C005F5D5E4
:10136000E06801280AD008B1052813D0286A20F0C7
:1013700001002862286A20F0040002E0286A40F098
:1013800001002862E06841F2883B98B1FFF7C2FC97
:1013900082460BE0286A40F004002862EEE700BFB6
:1013A000FFF7B8FCA0EB0A0159455AD8286A800714
:1013B000F6D50CE0FFF7AEFC824605E0FFF7AAFC8D
:1013C000A0EB0A0159454CD8286A8007F6D41FB112
:1013D000E86920F08050E861E06988B36968C1F38A
:1013E0008101022944D00228C6F8608004D0FFF7AA
:1013F00091FC044638E034E0FFF78CFC074604E03B
:10140000FFF788FCC01B02282BD828688001F7D47E
:10141000206AB0F5803F05D16868A16820F40030EB
:1014200008436860D4E908010843696821F474112D
:1014300008436860C6F86090FFF76CFC044606E05D
:1014400025E000BFFFF766FC001B022809D82868CA
:101450008001F7D51BE000BFFFF75CFC001B0228F2
:1014600002D90320BDE8F88F28688001F4D40EE08B
:101470000128F7D06868226A00F48031914204D1D3
:10148000616A00F47010884201D00120EAE7002070
:10149000E8E700000010024000004242800442429F
:1014A000300000200070004010B5401EB0F1807F79
:1014B00001D3012010BD4FF0E02460610F216017BF
:1014C00000F043FA0020A06107202061002010BD39
:1014D00070B5040004D094F84100002510B106E076
:1014E000012070BD84F84050204600F023F82420ED
:1014F00084F841002068C16821F40051C160204691
:1015000000F0C6F92068016921F49041016120686A
:10151000416921F02A0141612068C16841F400510C
:10152000C1606564202084F8410084F8420065634E
:10153000002070BD30B585B0002400940194029461
:10154000039400681449884224D11448816941F405
:1015500080418161816901F480410491816941F098
:101560000401816180690E4D00F0040004904FF485
:1015700000700090022001900320039069462846E5
:10158000FFF7CEFA2815CDE90004694628460294F3
:10159000FFF7C6FA05B030BD003801400010024028
:1015A00000080140FEE700003EB500241148009409
:1015B000019402940E49846001600473047501254E
:1015C00005614FF460214460C161FFF7C5F808B1BF
:1015D000FFF73DF80820CDE900056946029405486B
:1015E000FFF738F8002801D0FFF731F83EBD0000C2
:1015F000002401404C0C002010B59CB01C22164960
:101600006846FEF72DFE0021684600F0CFF9134C26
:1016100011491C2220601C3107A8FEF721FE002181
:1016200007A800F0C3F90C4960601C2238310EA8ED
:10163000FEF716FE00210EA800F0B8F90649A060DA
:101640001C22543115A8FEF70BFE002115A800F04E
:10165000ADF9E0601CB010BD802C00081400002023
:10166000F0B585B000241B480094019402940394C3
:10167000816941F004018161816901F004010491F3
:10168000816941F0080181618069134F00F0080011
:101690004FF440660490002231463846FFF735FB90
:1016A0000225CDE9005469460C480294FFF738FA48
:1016B000CDE90054694638460294FFF731FA01AA91
:1016C0000120009682E8310069463846FFF728FA83
:1016D00005B0F0BD00100240000C014000080140C0
:1016E0000C4810B50A4901604FF4E1314160002116
:1016F00081600C22C160C0E904128161C161FFF701
:10170000E7FE002803D0BDE81040FEF7A0BF10BDE3
:10171000003801407C0C0020FEE7FEE710B50221F6
:101720000348FFF7EDFA012800D0002010BD0000AB
:1017300000080140012000F02DF9FBE7FEF7B0FEA4
:10174000FEF776FF142000F025F9F9E700F01AFC07
:1017500063260927104C0A254FF47A78B4F9000063
:10176000632800DD2680B4F90600092800DDE78043
:10177000B4F9000090FBF5F191FBF5F205FB1211B5
:10178000A18090FBF5F105FB1100608000F00EFCDC
:10179000404600F0FFF8E1E700000020174C184F2A
:1017A000DFF860904FF6FF754FF066366FF00B086C
:1017B0004FF4FA6A1448FFF727F929461248FFF751
:1017C00085F81148FEF7C4FFE06000F0E3FF324601
:1017D0003B4600F0F7FF424601F00CFA00F0A0FF94
:1017E0004946206101F008F901F0EAF82080064836
:1017F000FFF76AF9504600F0CDF8DBE70000002063
:1018000066660A400000F0414C0C002010B5FFF75E
:1018100087FA00F0AFFE012803D0BDE8104000F0C9
:101820003BBE10BD30B593B028216846FEF74AFD97
:1018300014210AA8FEF746FD002401200F9402257A
:101840000490009510201194059010941294079420
:101850006846FFF799FC08B172B6FEE70F20CDE9A4
:101860000A040C940D9400210AA80E94FFF7B0FB13
:1018700008B172B6FEE70FA80F951194FFF732FB7F
:10188000002801D072B6FEE713B030BD70470000EB
:1018900070B5044600680169E26821F440511143C3
:1018A00001612169A0680843616908432168CA6829
:1018B00041F20C639A430243CA6020684169A269FD
:1018C00021F44071114341611E492068884202D1D0
:1018D000FFF724FC01E0FFF711FC00EBC00101EB76
:1018E0000012606864218000B2FBF0F3B3FBF1F3F7
:1018F0006FF018067343B2FBF0F5B2FBF0F605EBA0
:101900008305322303EB0515B5FBF1F5B6FBF1F6C4
:1019100005F0F00505EB0615B2FBF0F6B2FBF0F0B2
:10192000B0FBF1F06FF01802504306EB800003EBC0
:101930000010B0FBF1F0216800F00F00284488602F
:1019400070BD000000380140FEE70907090E0028BD
:1019500004DB00F1E02080F80014704700F00F0075
:1019600000F1E02080F8141D7047FFF7E1F9FFF760
:1019700059FFFFF775FEFFF717FEFFF7B1FEFFF700
:101980003BFE00F00EF8FEE701460020842900D05F
:10199000C81C704710B500B9012000F097FC00206A
:1019A00010BD10B500F0B8FC002010BD7FB50D468D
:1019B00004464169B0F9080081B1A16971B1FFF72E
:1019C000E3FFD4E905128DE80700D4E900102B46A7
:1019D000226900F0A4FD039004B070BDFFF7D4FFAE
:1019E00003A9CDE90001208A2B4682B2D4E9001078
:1019F00000F068FD012801D00020EDE70398EBE737
:101A00002DE9F041184C0F460546E6682068001D98
:101A100000F095FB38B9206890F82C100120884020
:101A2000216981432161681C07D137B12168BDE874
:101A3000F0410E48091D00F0C5BB20683544B54291
:101A40004560216805D2A06BBDE8F041091D00F09A
:101A5000A1BB606B091D00F09DFBA06A854200D20E
:101A6000A562BDE8F081000034000020A00D002038
:101A70002DE9F041054600F0B1FB2E4CA068401C5A
:101A8000A06020682C4F10B1606940B32DE0256044
:101A9000A068012829D1002606EB860007EB80000C
:101AA00000F06AFB761C072EF6D323488C3000F03A
:101AB00063FB2148A03000F05FFB1F48B43000F00A
:101AC0005BFB1D48C83000F057FB1B48DC3000F0C2
:101AD00053FB19488C3060631430A06305E0206824
:101AE000E96AC06A884200D82560606A401C60626A
:101AF000E96A0120226988401043206101EB8100DE
:101B000007EB8000291D00F05DFB00F087FB60699A
:101B100000280CD02068E96AC06A884207D20749C9
:101B20004FF080500860BFF34F8FBFF36F8FBDE859
:101B3000F081000034000020C40C002004ED00E01F
:101B400010B5044690F8510058B101280CD0022875
:101B50000FD0502080F31188BFF34F8FBFF36F8FEA
:101B6000FEE7206B00F06EFB2046BDE8104000F061
:101B700069BB10BD10484FF44061420706D0C01D3C
:101B80000D4920F00700411AC1F540610B4A0023BE
:101B90000144C2E900030839183A21F00701116035
:101BA0004B600B600B1AC0E9001393604FF00040CC
:101BB0005360506170470000B40D00208800002081
:101BC000144E154CA6F1C8074FF08058DFF84C9022
:101BD00012E000BF00F002FBF068C568281D00F0AD
:101BE000AEFAA068401EA0606068401E606000F011
:101BF00015FB2846FFF7A4FF60680028EAD1386883
:101C00000128F9D9C9F80080BFF34F8FBFF36F8F58
:101C1000F2E700008C0D00203400002004ED00E00D
:101C20002DE9F0479A46DDE9098481466FF0030308
:101C3000206B03EB82021044089E20F00707780710
:101C400007D0502080F31188BFF34F8FBFF36F8F01
:101C5000FEE7002561B1002023180A5C83F83420D8
:101C60000A5C12B1401C1028F6D384F8435001E0FE
:101C700084F83450072E00D30626E662C4E91165C5
:101C8000201D00F084FA04F1180000F080FA2461AD
:101C9000C6F107006462A061E56484F850505246C2
:101CA0004946384600F0C0F82060B8F1000F01D076
:101CB000C8F80040BDE8F08730B5114900E0114692
:101CC0000A688242FBD34B685C18844203D14068A7
:101CD00018444860084643681C18944209D1084CCF
:101CE000183C2468A24209D052681A4442600A682B
:101CF00012680260814200D0086030BD0460F9E7DC
:101D0000880000200648416B096829B1416BC96809
:101D1000C9684968816270474FF0FF31FAE70000F7
:101D20003400002008484068401C4FF0500080F309
:101D3000118804D0BFF34F8FBFF36F8FFEE7BFF35F
:101D40004F8FBFF36F8FFEE7900000202DE9F04129
:101D50000546002700F016FB324E306808B9FFF741
:101D600009FF706905424ED1C5B3083568070ED02A
:101D700005F00700C0F108000544680707D05020AF
:101D800080F31188BFF34F8FBFF36F8FFEE72DB342
:101D90007068854237D82348183001460C6801E046
:101DA00020460C466168A94202D221680029F7D179
:101DB00031688C4227D00768216801606068083765
:101DC000411B10290FD96019420708D0502080F319
:101DD0001188BFF34F8FBFF36F8FFEE713E04160B1
:101DE0006560FFF769FF61687068401A7060B268EB
:101DF000904200D2B060706901430020C4E9000144
:101E0000F068401CF06000F029FC780707D05020F3
:101E100080F31188BFF34F8FBFF36F8FFEE7384613
:101E2000BDE8F0817000002010B5031F4FF08074F2
:101E30001C601B1F21F001011960191F024B0B6070
:101E4000143940380A6010BD251D00080448C188B7
:101E5000491C09B2C180092901DD0021C1807047F8
:101E60000000002004480189012902D001210181DC
:101E700070470021FBE700000000002070B50D4610
:101E8000044600F04BF805F0070040F008006070D1
:101E90000020207070BD05E0401EC0B200BF00BF32
:101EA00000BF00BF0028F7D1704700004FF00003CB
:101EB0004FF0060209B1034901E00249891D00F013
:101EC0002CB900002C2D00082DE9FF4700250C9FA0
:101ED0000560456088468560994616460446072198
:101EE000C560FFF7CBFF204600F018F8C4F8048067
:101EF000A681C4F80890E7811120CDE901050320EF
:101F00000390694600964046FEF70AFE6946484639
:101F10000097FEF705FE2570BDE8FF8710B5044663
:101F200002E000BFFEF7EAFD207801284FF0010033
:101F3000F8D0207010BD10B5C18980680022FEF76E
:101F4000E4FEBDE810401420FFF7A5BF10B504461D
:101F5000C18980680022FEF7D8FE1420FFF79BFF9E
:101F6000A18901226068FEF7D0FE1420FFF793FFDD
:101F7000E1890122A068FEF7C8FEBDE810401420E8
:101F8000FFF789BF08B54FF4006006494210009082
:101F90000B460548FFF798FFBDE8084000210248BE
:101FA000FFF784BF000C0140F0190020104A30B444
:101FB0001049138900204871012B08710AD0C8709C
:101FC000887048700870002330BC062209490A480E
:101FD00000F0A3B8B2F90640084B1C5DCC708870C5
:101FE000B2F90400185C4870B2F90200185CE9E725
:101FF00000000020A0000020F0190020382D00086B
:1020000070B50E4604460025A18900226068FEF7DF
:102010007CFE1420FFF73FFFF007E189A06801D0A4
:10202000012200E00022FEF770FE1420FFF733FFCC
:10203000A18901226068FEF768FE1420FFF72BFFDC
:102040006D1C7608EDB2082DDED3A18900226068F0
:10205000FEF75BFEE1890122A068FEF756FE142020
:10206000FFF719FFA18901226068FEF74EFE1420D8
:10207000FFF711FFE189A068FEF742FE050004D1D9
:10208000E1890022A068FEF740FE1420FFF703FF5D
:10209000A18900226068FEF738FE1420FFF7FBFEDE
:1020A000284670BD2DE9F0411C4615460E460746F0
:1020B000052B30D8062D00D90625FFF73CFF40211F
:1020C0003846FFF79DFF3846FFF740FF3846FFF7D9
:1020D00032FF04F00300C030C1B23846FFF790FF72
:1020E000002405E0315D3846FFF78AFF641CE4B246
:1020F000AC42F7D33846FFF729FF3846FFF71BFFFE
:1021000078788030C1B23846FFF77AFF3846BDE8AC
:10211000F041FFF71BBFBDE8F0812DE9F0411D46FE
:1021200016460F460446FFF7F9FE2B46324639465F
:102130002046FFF7B7FF00202070BDE8F081D0E90E
:10214000013201699A60D0E901235A604A688242EB
:1021500001D182684A60002202610868401E08605E
:1021600008687047034B036003F154000860802047
:1021700010607047F809002000F108014FF0FF32AD
:10218000C0E90112C16001610021016070470021B6
:102190000161704730B50B685A1C02D000F108028B
:1021A00002E0026904E02246546825689D42FAD99B
:1021B00053684B6099608A60516008610168491CEE
:1021C000016030BD42684A6093688B6093685960D3
:1021D000916008610168491C01607047502080F3DC
:1021E0001188BFF34F8FBFF36F8F0A494868401CB7
:1021F000486001280CD10848006810F0FF0F07D094
:10220000502080F31188BFF34F8FBFF36F8FFEE72D
:10221000704700009000002004ED00E00849486885
:1022200028B1401E486001D180F3118870475020CA
:1022300080F31188BFF34F8FBFF36F8FFEE700006D
:102240009000002070B500282AD0164DA0F1080497
:1022500060686969084207D1502080F31188BFF394
:102260004F8FBFF36F8FFEE722683AB1502080F3A3
:102270001188BFF34F8FBFF36F8FFEE78843606015
:1022800000F080F860686968084468602046FFF7DD
:1022900013FD2869401C2861BDE8704000F0DEB9DC
:1022A00070BD0000700000204FF0E02000210161AF
:1022B000816105494FF47A720968B1FBF2F1491E58
:1022C00041610721016170473000002010B5020014
:1022D00014D00F48006B38B1502080F31188BFF341
:1022E0004F8FBFF36F8FFEE700F04CF800211046D0
:1022F000FFF786FB00F0B2F9002807D105494FF03F
:1023000080500860BFF34F8FBFF36F8F10BD000088
:102310003400002004ED00E010B586B000240394E2
:1023200005AA04A903A80494FFF71CFFDDE9030133
:102330000094CDE9011000230EA11048059A00F089
:10234000EEF80F490028C86211D0502080F31188A0
:10235000BFF34F8FBFF36F8F4FF0FF3088620120C4
:102360004861CC6006B0BDE8104000F041B806B04E
:1023700010BD000049444C4500000000C11B00088E
:10238000340000200248016B491C016370470000C3
:10239000340000201448016B11B10121C161704764
:1023A0000021C1610169B1FA81F1C1F11F0101EBA5
:1023B00081020E4951F822306BB101EB820101F12B
:1023C00008034A6852684A609A4201D152684A60DA
:1023D000D16801607047502080F31188BFF34F8FA0
:1023E000BFF36F8FFEE7000034000020C40C002014
:1023F0001CB5264908780190FF20087008788DF8F0
:1024000000009DF800009DF8002000F0F0009042D0
:1024100007D0502080F31188BFF34F8FBFF36F8F29
:10242000FEE79DF800001A4C00F0500020700720D5
:10243000A06005E09DF8002052008DF80020401EAD
:102440009DF800201206F5D4A060032807D0502084
:1024500080F31188BFF34F8FBFF36F8FFEE74FF408
:102460004070A060019808700A48016841F470014A
:102470000160016841F070410160FFF715FF002025
:102480006060FDF793FE00201CBD000000E400E04A
:102490009000002020ED00E010B5502080F311885E
:1024A000BFF34F8FBFF36F8F00F072F818B104497C
:1024B0004FF080500860002080F3118810BD0000AC
:1024C00004ED00E02DE9FF5F8346DDE90E879946C4
:1024D00016468A469000FFF739FC05001CD05420B0
:1024E000FFF734FC040014D00020256384F8510069
:1024F000CDE90240CDE900874B4632465146584669
:10250000FFF78EFB2046FFF7B3FA012004B0BDE8C9
:10251000F09F2846FFF796FE4FF0FF30F6E7F0B544
:1025200085B0DDE90B640A9DA6B1DCB154270097A4
:102530002663022684F85160002604AFCDE90246E6
:10254000CDE90057FFF76CFB2046FFF791FA04989E
:1025500005B0F0BD502080F31188BFF34F8FBFF35B
:102560006F8FFEE7502080F31188BFF34F8FBFF3CA
:102570006F8FFEE70548416919B1006B18B1002063
:10258000704701207047022070470000340000208F
:102590002DE9F0412F4C0026206B28B1A069401C8A
:1025A000A0613046BDE8F081E5686D1CE56013D19F
:1025B000606B006838B1502080F31188BFF34F8FF3
:1025C000BFF36F8FFEE7606BA16B6163A063206A4E
:1025D000401C2062FFF796FBA06ADFF87C808542F2
:1025E00009D3606B0068A0B1606BC068C768786889
:1025F000854211D2A0622068C06A00EB800158F8C1
:102600002100012800D90126E0690028C9D001264F
:10261000C7E74FF0FF30EDE7381DFFF790FDB86AD0
:1026200018B107F11800FFF78AFDF96A0120226945
:1026300088401043206101EB810108EB8100391DC6
:10264000FFF7C0FDF86A2168C96A8842C9D301262C
:10265000C7E7000034000020C40C00202DE9F0473B
:102660002C4D00242746286B38B1FFF7B7FD286BA7
:10267000401E2863286B40B146E0502080F311884B
:10268000BFF34F8FBFF36F8FFEE7A968224E012083
:10269000D1B3A6F1B40980463068E8B1F068C468E7
:1026A00004F11800FFF74BFD201DFFF748FDE06A1D
:1026B0002A6908FA00F11143296100EB800109EB56
:1026C0008100211DFFF77EFDE06A2968C96A884202
:1026D000E2D3C5F81C80DFE70CB1FFF713FBAC6950
:1026E00044B14646FFF754FF00B1EE61641EF9D1D4
:1026F0000020A861E86938B1084901273807086057
:10270000BFF34F8FBFF36F8FFFF788FD3846BDE8EB
:10271000F087000034000020780D002004ED00E078
:1027200021F00042A2F16052B2F5801F01F0004397
:1027300028BFD2F17F6C0BD95FEA001C43EAC202CA
:1027400042EB507018BF704728BF20F0010070475F
:10275000B2F5801FBCBF184670474FEA410C1CF50C
:10276000001F02D2084600F00EBA70B500F0D4F88F
:1027700000000089FFF7F6BF4FF00040A0F5800091
:102780007047000002494FF0000000F001BA00BF9E
:102790000000F87F10F0004248BF4042B0FA80F3DA
:1027A00010FA03F10AD0C3F11D0303F580634FEA69
:1027B000415002EB035202EBD12170474FF0000071
:1027C00070470000DFF848C170B51CEA111E1EBF3B
:1027D0001CEA13159EEA0C0F95EA0C0F00F06F80AF
:1027E00081EA030423EA4C134EEAD47E21EA4C1119
:1027F00041F4801143F48013AE44A1FB024CA0FBD2
:102800000365AEF17F7E361955EB0C05A1FB034C39
:102810004CF10003A0FB021C16EB0C06654153F1C2
:102820000003094218BF46F0010613F4007F0BD1E4
:102830004FEA03314FEA0530340341EA155140EACB
:1028400016506FF003020AE04FEAC3214FEAC52099
:10285000F40241EA555140EA56506FF0020202EB91
:102860002E4201EB025585EACE710AD05FEA440C94
:1028700018BF24F0004450F1000041F1000120EAAB
:10288000D47040F2FE7C624500D270BDA84214BFF5
:102890004FF080444FF04044002E08BF0024BEF1AA
:1028A000806FA8BFA1F1C041BDE8704080F2828076
:1028B0004FF0000001F1C04101F0004170479EEA75
:1028C0000C0F0CEA131518BF95EA0C0F06D04FF049
:1028D000000081EA030E0EF0004170BD00F01CF80C
:1028E0008900013E00F007B800F009B84FEA430C38
:1028F0005FEA5C5C08D081EA030100F05BB84FEA54
:10290000410C5FEA5C5CF6D14FF000000149704772
:102910000000FF070000F87F0EF1020E2EF0030EFC
:102920005EF8046B364205D4012A43EB030515F526
:10293000001F12D8012841EB010C1CF5001F0CD818
:102940000ED14FEAD17C15F5001F0CEB4C0C0CF1AD
:10295000020C08BF4CEBD37C04E04FF0080C01E004
:102960004FEAD37C0CEB4C0526FA05F606F0070679
:10297000B6F1040C06D20EEB860CBDE870404CF0AC
:10298000010C6047DFE80CF0090B02024FF0004138
:102990004FF00000A1F5002170BD19461046012836
:1029A00051EB010418BFD4F5001484BF002001F0DE
:1029B000004170BD0808A0F500114FEA31017047D1
:1029C00041000B0ED3F19E0208D950F400034FEAE8
:1029D000032323FA02F048BF4042704710B500F0CD
:1029E0008CF800BF49922480002070476FF00042AD
:1029F00082EA2000704700004FF47F0C1CEAD012DE
:102A00001EBF1CEAD11392EA0C0F93EA0C0F00F0E0
:102A1000478090EA010F48BF42F480724FF0004CAB
:102A20004CEA00204CEA012102EB0302A0FB011357
:102A3000A2F50002002918BF43F001035B0028BF84
:102A40004FEA330342EB22425FEA132C4CEBC250B5
:102A50002EBFBCEB436FB2F57C0F70474FEA036C9F
:102A6000BCF1004F08BF20F00100B2F57C0F38BF69
:102A700070470BD582F0FF0212F5803FC8BF704748
:102A800000F1C040D8BF00F00040704700F5000CD6
:102A90005FEA4C0C48BF7047B0F1C04000F073B81B
:102AA00090EA010F0CEAD11348BF42F480726245EC
:102AB00038BF634504D280EA010000F0004070474F
:102AC00010B500F01AF800BF8900013E00F007B809
:102AD00000F009B85FEA410C5FEA1C6C08D080EA9C
:102AE000010000F050B85FEA400C5FEA1C6CF6D1C0
:102AF0004FF00040A0F5800070470EF1020E2EF05E
:102B0000030E5EF8044B244204D44FEA4102B2F1B2
:102B10007F4F11D84FEA4003B3F17F4F0CD80ED14D
:102B20004FEAD07CB2F17F4F0CEB4C0C0CF1020C55
:102B300008BF4CEBD17C04E04FF0080C01E04FEAF9
:102B4000D17C0CEB4C0324FA03F404F00704B4F139
:102B5000040C06D20EEB840CBDE810404CF0010CC6
:102B60006047DFE80CF0070802024FF00040A0F5D4
:102B7000800010BD0846420018BFD2F1807288BFA5
:102B800000F0004010BDFF2141EAD050C005704761
:102B90000CF00F03092B08BF082000F059800A2B06
:102BA0000BD0082B18BF704708BF1CF0400F0AD08D
:102BB0004FF000004FF0000170471CF0400F18BFAD
:102BC0004FF0004070471CF0100F08D020F0704309
:102BD00000F07F4242EAD3014FEA4370704700F0B1
:102BE000604021F07F4242EA000201F07F4040EA6B
:102BF000727070474FF0FF0C4CF4E06C1CEA1153FC
:102C00001CBF9CEA030C9445C2BFDA4201EB02519F
:102C10007047002B0DD0BCF1000F0FD0002A01F03F
:102C20000041A4BF41F0E04141F07F614FF000005E
:102C3000704701F000414FF00000704750EA013347
:102C40004FF09B0C18BF4CF0806C7FF49BAD70472D
:102C50001CF4801F11D01CF4E02F03D06FEACC319C
:102C6000490070474FF04050EFF3008222F070426D
:102C700042EA000282F3008870474FF0000070477C
:102C8000542D000835170008000000000000000067
:102C900080000000A8000020A8020020602D00088D
:102CA0003D17000803000000000000008000000045
:102CB000FC020020FC040020442D00084D170008F1
:102CC000020000000000000080000000500500200D
:102CD00050070020702D00089D170008010000001B
:102CE0000000000080000000A4070020A4090020CC
:102CF000010202030405060708090A0B0C0D0E0F5A
:102D00001010010202030405060708090A0B0C0D46
:102D10000E0F10100000000000000000010203046C
:102D2000060708090000000001020304FFFFFFFF7F
:102D3000FFFF0000000000003F065B4F666D7D074F
:102D40007F6F00006D795461736B30335F6469731A
:102D5000706C610064656661756C745461736B00BE
:102D60006D795461736B30325F627574746F6E008D
:102D70006D795461736B30345F73656E736F72007D
:102D8000A02D000800000020A80000002801000875
:102D9000482E0008A8000020B81F000044010008C9
:102DA0000000000000000000010000000000000022
:102DB0000000000000000000000000000000000013
:102DC00000000000010000001000000000000000F2
:102DD00000127A0000000000000000000000000067
:102DE00000000000000000000000000000000000E3
:102DF00000000000000000000000000000000000D3
:102E000000000000000000000000000000000000C2
:102E100000000000000000000000000000000000B2
:102E200000000000000000000000000000000000A2
:102E300000000000AAAAAAAA0000000000000000EA
:082E400000000000000000008A
:04000005080000ED02
:00000001FF
